:020000040800F2
:1000000038070020D5010008D9010008DB010008ED
:10001000DD010008DF010008E10100080000000028
:10002000000000000000000000000000E3010008E4
:10003000E501000800000000E7010008E9010008F0
:10004000EB010008EB010008EB010008EB010008E0
:10005000EB010008EB010008EB010008EB010008D0
:10006000EB010008EB010008EB010008EB010008C0
:10007000EB010008EB010008EB010008EB010008B0
:10008000EB010008EB010008EB010008EB010008A0
:10009000EB010008EB010008EB010008EB01000890
:1000A000EB010008EB010008EB010008EB01000880
:1000B000EB010008EB010008EB010008EB01000870
:1000C000EB010008EB010008EB010008EB01000860
:1000D000EB01000821080008EB010008EB01000813
:1000E000EB010008EB010008EB010008EB01000840
:1000F000EB010008EB010008EB010008EB01000830
:10010000EB010008EB010008EB010008EB0100081F
:10011000EB010008EB010008EB010008EB0100080F
:10012000EB010008EB010008EB010008EB010008FF
:1001300000F002F800F03FF80AA090E8000C8244BA
:100140008344AAF10107DA4501D100F034F8AFF297
:10015000090EBAE80F0013F0010F18BFFB1A43F0A5
:1001600001031847EC1600000C170000103A24BFDA
:1001700078C878C1FAD8520724BF30C830C144BF0C
:1001800004680C607047000000230024002500264E
:10019000103A28BF78C1FBD8520728BF30C148BFEA
:1001A0000B607047642900F07380002070471FB512
:1001B0001FBD10B510BD00F031F91146FFF7F7FF74
:1001C00000F0C0FB00F04FF903B4FFF7F2FF03BCEF
:1001D00000F068FB08480047FEE7FEE7FEE7FEE7A1
:1001E000FEE7FEE7FEE7FEE7FEE7FEE70348044919
:1001F000044A054B70470000310100083801002017
:100200003807002038030020380300207047000022
:100210000FB4044910B503AA029800F0D1F810BC3D
:100220005DF814FB040000202DE9F0410E46044661
:10023000002020622046E168884730B3252805D099
:10024000D4E901219047206A401CF2E7E16820468A
:1002500000278847050018D0A5F14100192802D8C9
:1002600020354FF400673246294620462760FFF7C5
:1002700099FF40B1012804D0F61D26F00706083684
:10028000D8E7361DD6E72846DAE7206ABDE8F081D0
:100290002DE9F0410646002410687529314615A560
:1002A00010D0AFF30080002802DA404212A507E028
:1002B00031688A0701D511A502E0490704D510A5C8
:1002C000012401E0AFF3008000210A2306F1240796
:1002D00007E0B0FBF3F203FB120030307854104615
:1002E000491C0028F5D123462A463046BDE8F04196
:1002F00000F00CB8000000002D0000002B000000F2
:100300002000000070477047704770472DE9F047A4
:100310000D4699469246044600F124080168880675
:1003200004D5E06921F01001216000E00120A8421D
:1003300001DD471B00E00027A1697A1902EB0900E3
:10034000081AA0612078C00602D42046AFF30080CE
:10035000002608E0D4E901211AF806009047206A37
:10036000401C761C20624E45F4DB2078C0060AD57E
:100370002046AFF3008006E0D4E901213020904709
:10038000206A401C2062381EA7F10107F4DC07E058
:10039000D4E9012118F805009047206A401C20622A
:1003A000281EA5F10105F3DC2046AFF3008020787C
:1003B000000602D50220BDE8F0870120FBE700001F
:1003C000074B70B50D467B4400F011F804462846F3
:1003D00000F020F810B14FF0FF3070BD204670BD26
:1003E0005F05000001694A1C02610878704700B58A
:1003F0008FB0CDE901310021059105497944CDE95E
:10040000031011466846FFF70FFF0FB000BD000054
:10041000E5FFFFFF007B00F080007047754600F0AD
:1004200029F8AE4605006946534620F00700854688
:1004300018B020B5FFF7DAFEBDE820404FF0000607
:100440004FF000074FF000084FF0000B21F00701BC
:10045000AC46ACE8C009ACE8C009ACE8C009ACE8FF
:10046000C0098D4670470446AFF300802046FFF771
:10047000ABFE000000487047D4000020014649064A
:10048000084A926942F00102064B9A61064A526894
:1004900022F0E062044B5A601A4652680A435A60DE
:1004A00070470000001002400000014010B51E48D7
:1004B000806940F004001C4988610846806940F06A
:1004C000100088610120FFF7D9FF1848006820F06C
:1004D0000F00164908600846006840F008000860F0
:1004E000081D006820F07040091D0860084600687B
:1004F00040F0004008600D480C30006840F40040B7
:100500000A490C3108600A48006820F47000084964
:1005100008600846006840F4000008600846C068AB
:1005200040F02000C86010BD0010024000080140EB
:100530000010014010B5044614B101201B49087099
:100540001A48007808B31A48006838B1194800689A
:1005500020B118483C380068012816D10A2000F064
:10056000C5F90020114908701148006808B9012038
:1005700010BD1048006808B90220F9E70D483C3862
:100580000068012810D10320F2E70948006801281B
:100590000AD108480068012806D106483C3800689E
:1005A00010B90120014908700020E1E70A0000208D
:1005B000140122423C01214210B5472144F61F603C
:1005C00000F090F810BD000000B50020154908614A
:1005D000C8601420486100208861C861084600682E
:1005E00040F001000860084640680F4908400D4986
:1005F0004860084600680D4908400A4908600846F6
:10060000006820F4802008600846406820F4FE005E
:1006100048600020886000214FF0006000F058F82A
:1006200000BD0000001002400000FFF8FFFFF6FED2
:100630002DE9F0410746884614461D46284600F03D
:1006400033F8C5F1040007FA00F60F20284100EA4C
:100650000800064306F00F06E21704EBD2625211BF
:10066000920002F1E022D2F800212146E31704EBC8
:10067000D3635B11A4EB431C012303FA0CF31A436D
:100680002046E31704EBD3635B119B0003F1E023E7
:10069000C3F800210348005D40EA061001490855EF
:1006A000BDE8F08100E400E00146072323EA0102EF
:1006B0001202054B18684FF6FF031840034B18430E
:1006C0001043014B186070470CED00E00000FA0584
:1006D000024A0A400243024B1A60704780FFFF1F24
:1006E00008ED00E0274AD26942F00202254BDA61A8
:1006F000254A126822F07F42234B1A601A4612687C
:1007000042F03B421A60204A0C32126842F0C002AA
:100710001D4B0C331A601D4A1080121F11801B4A9A
:10072000143A128842F07002184B143B1A801A4691
:10073000128842F008021A801A46128842F4E042F7
:100740001A801A46128842F400621A800F4A0C3A44
:10075000128842F001020D4B0C3B1A801A46128897
:1007600042F010021A80094A2C3A128842F08002A4
:10077000064B2C3B1A801A46128842F001021A805E
:100780007047000000100240000801402C040040A7
:1007900030B504460025FFF717FF1F48006840F4F6
:1007A00080301D49086000BF1B480068400C0028CD
:1007B000FAD04FF4806018494860A01EC4B20846C1
:1007C000406840EA844048600846406840F4803011
:1007D00048601248006840F03200104908600E4836
:1007E000006840F080700C49086000BF0A4800684B
:1007F000400E0028FAD00848406840F00200064940
:10080000486005E004484068C0F3870505F003052B
:10081000022DF7D130BD0000001002400020024040
:100820001D49098801F0200111B31B49091D0988E0
:10083000C8B21A49098801F40041C9B917490988A1
:1008400001F4804161B10A2803D00021134A1180CC
:1008500020E01249098841F40041104A118019E052
:100860000D2806D10D49098841F480410B4A1180B9
:1008700010E00A490988C1F30D01094A505407499B
:100880000988491C054A118011460988C72901DDDC
:10089000002111807047000000380140080000204E
:1008A0000C000020014600BF704700004FF0E0211F
:1008B000096921F004014FF0E0221161C21700EB39
:1008C0005272C2F3C702074B1A701946097801EB3E
:1008D0004102C2EBC1114FF6FF7202EAC101024AA6
:1008E00011807047000000200200002001460D4AE0
:1008F00012884A434FF0E0235A6100229A61012294
:100900001A6100BF4FF0E022106900F001021AB135
:1009100000F48032002AF5D000224FF0E0231A6163
:100920009A6170470200002000BF054A128802F059
:100930004002002AF9D0C2B2014B1B1D1A80704739
:100940000038014090B0002600200F9081460E90A4
:1009500003200B9009904FF0010B0920FFF718FFBF
:100960004820FFF7A3FF4FF4E131482000F07EF963
:10097000FFF722FEFFF79AFDFEE08048008800F4B2
:100980000040002871D07D4890F800A051467CA01E
:10099000FFF73EFC00258BE07C48405D4228FAD101
:1009A0007A49681C085C4728F5D1A81CC5B278A014
:1009B000FFF72EFC00240CE028197449085C0CA9F0
:1009C00008550CA8025D214675A0FFF721FC601CAC
:1009D000C4B228196D49085C0D2801D0052CEBDB49
:1009E00028196A4B1A5C29196DA0FFF711FC281908
:1009F000401C664B1A5C2819411C69A0FFF708FCD3
:100A00004FF0010B274618E0781E0CA9085C30381F
:100A100000FB0B8000F0FF08781ECDF800B00B5CE7
:100A20007A1E414663A0FFF7F3FB0BEB8B004FF6FA
:100A3000FF7101EA400B781EC7B2022FE4DC9DF87B
:100A40003000732818D074282BD19DF831006C2801
:100A500002D101200B9005E09DF83100722801D1F0
:100A600002200B90CDF8288000E028E05DA0DDE9B1
:100A70000A21FFF7CDFB15E09DF83100752802D162
:100A80000120099005E09DF83100642801D1022081
:100A90000990CDF820805CA0DDE90821FFF7B8FBC4
:100AA00000E000BF00BF4FF00008601C2844C5B242
:100AB0005545FFF671AF0020304908802AE001203B
:100AC000FFF738FD0F900F98012804D0022807D0B7
:100AD00003281AD109E0701C86B201200E9018E09C
:100AE000701E86B201200E9013E0B9F1000F01D103
:100AF000012000E00020814649464CA0FFF788FB1A
:100B00004FF47A70FFF7F2FE03E00A20FFF7EEFEE3
:100B100000BF00BF972E01DD972602E0692E00DAA4
:100B20006926B9F1010F24D10E98012821D131464F
:100B300044A0FFF76DFB304600F0DFF90022474B81
:100B4000CDE9000100F0ECF90022454BCDE90201AE
:100B500000F0FEF80022434BCDE9040100F0DEFA7C
:100B6000CDE9060100F09CF93F49088000200E9075
:100B700002E000203C490880FFE600000800002059
:100B80000D0A6C656E3A25640D0A00000C00002009
:100B90000D0A66696E6420636D640D0A0000000032
:100BA0000D0A636D645F646174615B25645D3A2561
:100BB000640D0A000D0A636D645F76616C75653AB9
:100BC000256420636D645F646174615B25645D3AD4
:100BD00025642074656D70646174613A25640D0A42
:100BE000000000000D0A7475726E5F6469656374BD
:100BF000696F6E3A2564207475726E5F616E676C02
:100C0000653A25640D0A00000D0A73706565645F1E
:100C10007570646F776E3A25642073706565645FE4
:100C200076616C75653A25640D0A00000D0A7374CF
:100C30006172745F73746F705F666C61673A25648C
:100C40000D0A00000D0A6D6F746F725F70776D5F33
:100C500076616C3A25640D0A0000000000401F40D8
:100C600000407F400088D340340400402DE9F05F0D
:100C700005460E46300100F08BFC8146304905FBED
:100C800001F000F085FC8246494600F09FFB0746D4
:100C9000384600F05DFC84B2204600F079FC8346C3
:100CA000394600F055FD82464FF0834100F084FC48
:100CB000814600F04DFC80464FF6FF7000EA0414B8
:100CC00004EB080084B21F48806940F004001D490D
:100CD00088610846806940F4804088611A4800684D
:100CE00020F47F60184908600846006840F40B60F3
:100CF00008601448C06840F480401249C860084643
:100D0000C06820F48040C86010480480001D00883E
:100D100042F20C0108430D49091D0880084600886D
:100D200040F4807008800846008840F02000088069
:100D30000223252203210846FFF77AFCBDE8F09F35
:100D400040420F00001002400408014008380140F2
:100D500010B591EA030F48BF83F0004300F1F28120
:100D6000841A71EB030C05D2121943EB0C03001B20
:100D700061EB0C01DFF824E14FEA1154A4EB135CA2
:100D80001EEA430F18BF9EEA445F73D023EA0E03A6
:100D9000DCF1200E21EA045143F4801332D322FA0D
:100DA0000CFE10EB0E0023FA0CFE41EB0E01CCF111
:100DB000200E03FA0EFE10EB0E0051F10001B1F50A
:100DC000801FCCF1200E32D201EB045112FA0EF248
:100DD000BDE8104058BF7047401C38BF5FEA420270
:100DE00018BF7047002814BF20F0010041F1000136
:100DF0004FEA410313F5001F38BF7047A1F1C0410E
:100E000000F086B9012A43EB0302ACF1200CDCF1BF
:100E10001F0E32BF4FF0000E23FA0CF310EB03004D
:100E200041EB0451B4EB115FD0D0A1EB045101F5BB
:100E3000801149085FEA300001EB04510ED350F1F4
:100E4000000038BF12FA0EFE08D1BDE81040C9E715
:100E5000401C38BF5FEA4202CAD1C3E7BDE8104078
:100E60004FEA410313F5001F38BF7047A1F1C0419D
:100E700000F04EB99EEA445F08D011EA5E0FBDE86B
:100E8000104004BF01F0004100207047BDE8104051
:100E900070B500F0EFF800BF64FBBE3E0000E0FF5D
:100EA0004FEA1153A3F58063D3F11E03A8BFD3F11A
:100EB000200C08DB4FF0004242EAC12252EA5052B5
:100EC00032FA03F0704709420BD4102BC4BF002044
:100ED000704703F5787CBCF1FF3F05D04FF0FF3041
:100EE00070474FF00000704770B500F0C3F800BFC6
:100EF0004992248000207047F0E7B0FA80F310FA9E
:100F000003F10AD0C3F11D0303F580634FEA41509A
:100F10004FEA035202EBD12170474FF000007047B7
:100F2000DFF848C170B51CEA111E1EBF1CEA13157C
:100F30009EEA0C0F95EA0C0F00F06F8081EA030423
:100F400023EA4C134EEAD47E21EA4C1141F480117D
:100F500043F48013AE44A1FB024CA0FB0365AEF149
:100F60007F7E361955EB0C05A1FB034C4CF10003B9
:100F7000A0FB021C16EB0C06654153F1000309426D
:100F800018BF46F0010613F4007F0BD14FEA03317E
:100F90004FEA0530340341EA155140EA16506FF02C
:100FA00003020AE04FEAC3214FEAC520F40241EAF6
:100FB000555140EA56506FF0020202EB2E4201EB0F
:100FC000025585EACE710AD05FEA440C18BF24F0BE
:100FD000004450F1000041F1000120EAD47040F2D9
:100FE000FE7C624500D270BDA84214BF4FF0804421
:100FF0004FF04044002E08BF0024BEF1806FA8BF10
:10100000A1F1C041BDE8704080F282804FF0000045
:1010100001F1C04101F0004170479EEA0C0F0CEA5B
:10102000131518BF95EA0C0F06D04FF0000081EAA7
:10103000030E0EF0004170BD00F01CF88900013E67
:1010400000F007B800F009B84FEA430C5FEA5C5CB7
:1010500008D081EA030100F05BB84FEA410C5FEA77
:101060005C5CF6D14FF00000014970470000FF07BB
:101070000000F87F0EF1020E2EF0030E5EF8046BF6
:10108000364205D4012A43EB030515F5001F12D89B
:10109000012841EB010C1CF5001F0CD80ED14FEAC2
:1010A000D17C15F5001F0CEB4C0C0CF1020C08BFA9
:1010B0004CEBD37C04E04FF0080C01E04FEAD37C0A
:1010C0000CEB4C0526FA05F606F00706B6F1040C03
:1010D00006D20EEB860CBDE870404CF0010C604768
:1010E000DFE80CF0090B02024FF000414FF0000066
:1010F000A1F5002170BD19461046012851EB0104ED
:1011000018BFD4F5001484BF002001F0004170BD69
:101110000808A0F500114FEA3101704791EA030F6A
:1011200010B581F000413FF51BAE83F0004300F0A5
:1011300009B8000010B591EA030F48BF83F00043DF
:101140003FF50EAE841A71EB030C07D212198CF026
:10115000004C43EB0C03001B61EB0C01DFF8A4E136
:101160004FEA1154A4EB135C1EEA430F18BF9EEA2A
:10117000445F00F0B08023EA6E03524221EA04513A
:10118000C3EB6E0338BF5B1EDCF1200E25D322FAC1
:101190000CFE10EB0E0043FA0CFE41EB0E01CCF1FD
:1011A000200E03FA0EFE10EB0E0051F10001CCF1FF
:1011B000200E29D412FA0EF201EB0451BDE81040C2
:1011C00058BF7047401C1CBFB2F1004F7047002849
:1011D0000CBF491C20F00100704712EB020E43EBDC
:1011E000030218BF4FF0010E4EEA4202ACF1200C90
:1011F000DCF11E0E54D943FA0CFE10EB0E0051F137
:10120000FF31CCF11E0ED5D50EF1010E12FA0EFEF5
:10121000404141EB010101EB445C5FEA5C5C10D9A9
:1012200010EBDE7001EB045138BFBEF1004FBDE89A
:10123000104018BF704700280CBF491C20F0010067
:10124000704730D24FEAD42C11F5001124F4006419
:101250001BD0B1FA81F20B3AA41AA41ED2F12003DA
:10126000914030FA03F31943904001EBCC71002C0C
:1012700001EB0451BDE81040A8BF704701F1C04127
:101280004FF0000001F000417047B0FA80F310FA0F
:1012900003F100D110BDE41A173C4805C90AE4E780
:1012A00001EB045110BD491001EB0451BDE81040A1
:1012B0004FEA300002E04FF0000170474A0008BFDB
:1012C0000042F8D0B2F5001F28BF704701F000417E
:1012D0004FF0000070479EEA445F07D011EA5E0FAE
:1012E000BDE8104004BF002100207047BDE8104059
:1012F00070B5FFF7BFFE00BF40DFF63E83F0004150
:10130000104670470000E0FF90EA010F48BF81F0EF
:10131000004100F12E82421A3CBF801A89184FEA20
:10132000D0524FF07F4C1CEA410FA2EBD15318BFB3
:101330009CEA026F00F03B804FF0004C4CEA00202A
:101340004CEA012121FA03FC10EB0C0C1ED202F135
:10135000FF325FEA1C2040EBC25038BF70471CF0E0
:101360007F0F4FEA400C18BFBCF17F4F38BF70476A
:10137000C3F12003994008BF20F00100BCF17F4F6A
:1013800038BF7047A0F1C04000F0DDB94FEA3C0023
:10139000000A40EBC25028BF1CF0FF0F4FEA400C80
:1013A000E6D018BFBCF17F4F38BF7047EAE79CEA30
:1013B000026F05D010EA5C0F08BF00F000407047D4
:1013C00010B500F07AF900BF64FBBE3E4FF47F0C0D
:1013D0001CEAD0121EBF1CEAD11392EA0C0F93EA4A
:1013E0000C0F00F0858090EA010F48BF42F4807234
:1013F00040F4000C41F400002CF07F4120F07F40CD
:1014000000B58142A2EB03020FF2081CACEB504E78
:10141000C0F100009EF800E04FEA4E0E00FB0EFC0B
:1014200038BF49004FEA2C1C02F5FA020CFB0EF300
:101430004FEACE1E4FEA112C4FEAC1210EEB635E3C
:1014400042EB22420EFB0CFC4FEA1C5300FB031143
:101450004FEA112C4FEA01310EFB0CFC4FEADC4C39
:1014600000FB0C11C14228BF09184CEB03335DF897
:1014700004EB10EB410143EBC250B2F57C0F38BFD7
:10148000704729D512F0F00F1CBF00F1C04000F0EA
:1014900000407047008182838485868788898B8C91
:1014A0008D8E8F919293959697999A9C9D9FA0A2CD
:1014B000A3A5A7A8AAACAEB0B2B3B5B7B9BCBEC01D
:1014C000C2C5C7C9CCCED1D4D7D9DCDFE2E6E9ECBE
:1014D000F0F3F7FAFE0000004FEA400C0CF1807CBC
:1014E000BCF17E4F28BF7047B0F1C04000F02BB96F
:1014F00090EA010F0CEAD11348BF42F480726245B2
:1015000038BF634507D213F47F0F16D080EA01007D
:1015100000F00040704710B500F0CFF8097EFC3EA7
:1015200000F005B880EA010000F00040704780EA52
:10153000010000F0004000F006B912F47F0F04BF74
:101540000248704780EA010000F0FDB80000C07F4B
:10155000C10DD1F19E0206DB4FEA002343F00043A8
:1015600023FA02F07047004207D54FEA4001B1F17B
:10157000FE4F02D24FF00000704710B500F09DF80A
:1015800049922480002070476FEA200070470000D5
:10159000B0FA80F310FA03F2C3F19D030AD0D90523
:1015A00001EB1220530638BF704700F1010008BF5D
:1015B00020F00100704700004FF47F0C1CEAD012AD
:1015C0001EBF1CEAD11392EA0C0F93EA0C0F00F035
:1015D000478090EA010F48BF42F480724FF0004C00
:1015E0004CEA00204CEA012102EB0302A0FB0113AC
:1015F000A2F50002002918BF43F001035B0028BFD9
:101600004FEA330342EB22425FEA132C4CEBC25009
:101610002EBFBCEB436FB2F57C0F70474FEA036CF3
:10162000BCF1004F08BF20F00100B2F57C0F38BFBD
:1016300070470BD582F0FF0212F5803FC8BF70479C
:1016400000F1C040D8BF00F00040704700F5000C2A
:101650005FEA4C0C48BF7047B0F1C04000F073B86F
:1016600090EA010F0CEAD11348BF42F48072624540
:1016700038BF634504D280EA010000F000407047A3
:1016800010B500F01AF800BF8900013E00F007B85D
:1016900000F009B85FEA410C5FEA1C6C08D080EAF0
:1016A000010000F050B85FEA400C5FEA1C6CF6D114
:1016B0004FF00040A0F5800070470EF1020E2EF0B2
:1016C000030E5EF8044B244204D44FEA4102B2F107
:1016D0007F4F11D84FEA4003B3F17F4F0CD80ED1A2
:1016E0004FEAD07CB2F17F4F0CEB4C0C0CF1020CAA
:1016F00008BF4CEBD17C04E04FF0080C01E04FEA4E
:10170000D17C0CEB4C0324FA03F404F00704B4F18D
:10171000040C06D20EEB840CBDE810404CF0010C1A
:101720006047DFE80CF0070802024FF00040A0F528
:10173000800010BD0846420018BFD2F1807288BFF9
:1017400000F0004010BDFF2141EAD050C0057047B5
:1017500080F0004090EA010F7FF5DDAD81F000419F
:1017600000F007B890EA010F48BF81F000413FF553
:10177000D2AD421A04D882F00042A0EB020011441C
:101780004FEAD0524FF07F4C1CEA410FA2EBD153ED
:1017900018BF9CEA026F4AD04FF0004C4CEA002080
:1017A0004CEA012121FA03FCB0EB0C0C0FD412F02F
:1017B000FE0F36D05FEA4C001DD5001240EBC25040
:1017C00038BF70471CF03F0F18BF70470BE0A2F105
:1017D00001025FEA1C2040EBC25038BF70471CF08A
:1017E0007F0F18BF7047C3F12003994014BF401EFC
:1017F00020F00100704780084FEA122308BF7047AD
:10180000B0FA80FCA2EB0C02CCF1280C60FA0CF0D0
:1018100093EA122F04BF00EBC25070474FEAC37027
:101820007047130A5FEADC1008BF7047F6E79CEACE
:10183000026F04D010EA5C0F08BF0020704710B59B
:10184000FFF73BFF40DFF63E81F0004070470000AD
:1018500070180008000000200C0000006C01000857
:101860007C1800080C0000202C07000088010008EC
:0C1870000000000000000000000001006B
:0400000508000131BD
:00000001FF
